:020000040000FA
:100000000C946A010C949B010C949B010C949B0131
:100010000C949B010C949B010C949B010C949B01F0
:100020000C949B010C949B010C949B010C949B01E0
:100030000C949B010C949B010C949B010C949B01D0
:100040000C949B010C94B70C0C949B010C949B0199
:100050000C949B010C949B010C949B010C948C0AB6
:100060000C949B010C949B010C949B010C949B01A0
:100070000C949B010C949B010C949B010C949B0190
:100080000C94F60B0C949B010C949B010C949B011B
:100090000C949B010C949B010C949B010C94D60A2C
:1000A0000C949B010C949B010C949B010C949B0160
:1000B0000C949B010C949B010C949B010C949B0150
:1000C0000C949B010C949B010C949B010C949B0140
:1000D0000C949B010C949B010C949B010C949B0130
:1000E0000C949B010C9403020C946D030C94E4019A
:1000F0000C94F9010C94DA010C9415020C9407028B
:100100000C940D020C94E8010C94EE020C94710D09
:100110000C94EC010C9411020C941F020C94E0015D
:100120000C941A020C94D1050C941B020C94FF0140
:100130000C941B030C94EF010C94F50101040910BD
:1001400018222D394653606D79848E969DA2A5A6FE
:10015000A5A29D968E84796D605346392D22181084
:10016000090401848E969DA2A5A6A5A29D968E84C3
:10017000796D605346392D221810090401010409D4
:100180001018222D394653606D79796D60534639C8
:100190002D2218100904010104091018222D3946D6
:1001A00053606D79848E969DA2A5A6A5A29D968E7C
:1001B00084000020002300260029002C002F00329C
:1001C000000001000003010601090100000A0B0202
:1001D000090C0D0E080703040100000000000000D8
:1001E000000000000000000000000000000000000F
:1001F00000000000000000121110000000000000CC
:1002000000000000000000000000000000000000EE
:100210000000002200250028002B002E00310034B1
:100220000002010000050108010B0100002100246B
:100230000027002A002D00300033000101000004D7
:100240000107010A01050505050705080808080258
:100250000202020A0A08080404040401010101015F
:100260000101010303030303030303040707070C4E
:100270000C0C0C0C0C0C0C02020202060606060604
:100280000606060B0B0B0B0B0B0B0B0102102020B1
:1002900008081020401020408002010201080402DA
:1002A0000101020408102040808040201008040250
:1002B00001800402018040201008040201080402A9
:1002C00001010204081020408001020408102040AF
:1002D0008000710D11241FBECFEFD1E2DEBFCDBF74
:1002E00000E00CBF15E0A0E0B2E0ECEEF1E300E0CE
:1002F0000BBF02C007900D92AC30B107D9F725E0D3
:10030000ACE0B5E001C01D92A23FB207E1F711E0F9
:10031000CAE6D1E000E006C021970109802FFE0166
:100320000E94EC18C936D10780E00807A9F70E949F
:10033000AD0D0C94F4180C94000090E0FC01E5570E
:10034000FD4F24918B5B9D4FFC018491882399F094
:1003500090E0880F991FFC01E55DFD4FA591B491D8
:10036000FC01EF5EFD4F859194918FB7F894EC916D
:10037000E22BEC938FBF08958150823108F05AC070
:10038000E82FF0E08827E853FE4F8F4F0C94EC18CD
:10039000E801EC01DA01E001E4011A02EF01F501E4
:1003A000F901FF01030207020D0211021A021502F0
:1003B0001B021F02809180008F7780938000089538
:1003C000809180008F7DF9CF80918000877FF5CF6D
:1003D00084B58F7784BD089584B58F7DFBCF8091E0
:1003E000B0008F778093B00008958091B0008F7D2A
:1003F000F9CF809190008F7780939000089580913D
:1004000090008F7DF9CF80919000877FF5CF80910C
:10041000A0008F778093A00008958091A0008F7D29
:10042000F9CF8091A000877FF5CF809120018F7751
:10043000809320010895809120018F7DF9CF8091D4
:100440002001877FF5CFCF93DF93282F30E0F9018C
:10045000E553FE4F8491F901E557FD4FD491F90121
:10046000EB5BFD4FC491CC23A1F081110E94BC0134
:10047000EC2FF0E0EE0FFF1FEF54FE4FA591B4916B
:10048000EC91ED2381E090E009F480E0DF91CF91E1
:10049000089580E090E0FACF1F93CF93DF93282F49
:1004A00030E0F901E553FE4F8491F901E557FD4F26
:1004B000D491F901EB5BFD4FC491CC23A9F0162F29
:1004C00081110E94BC01EC2FF0E0EE0FFF1FEF5EE8
:1004D000FD4FA591B4918FB7F894EC91111108C01C
:1004E000D095DE23DC938FBFDF91CF911F910895CC
:1004F000DE2BF8CF863308F0865320917B00982FAF
:100500009870277F922B90937B00877080648093F4
:100510007C0080917A00806480937A0080917A00D8
:1005200086FDFCCF809178009091790008953FB7C7
:10053000F8948091C9059091CA05A091CB05B0911E
:10054000CC0526B5A89B05C02F3F19F00196A11D2B
:10055000B11D3FBFBA2FA92F982F8827BC01CD010D
:10056000620F711D811D911D42E0660F771F881F6C
:10057000991F4A95D1F708958F929F92AF92BF929B
:10058000CF92DF92EF92FF924B015C010E949702A3
:100590006B017C010E9497026C197D098E099F09ED
:1005A000683E734081059105A8F321E0821A910805
:1005B000A108B10888EEC80E83E0D81EE11CF11C2A
:1005C00081149104A104B10429F7FF90EF90DF900A
:1005D000CF90BF90AF909F908F900895AF92BF92B1
:1005E000CF92DF92EF92FF920F931F93CF93DF93FF
:1005F0006C017B018B01040F151FEB015E01AE182E
:10060000BF08C017D10759F06991D601ED91FC914F
:100610000190F081E02DC6011995892B79F7C5016C
:10062000DF91CF911F910F91FF90EF90DF90CF90CE
:10063000BF90AF900895089520914105260F33276C
:10064000331F21323105ECF420916505FC0190E067
:1006500080E0243069F082E00895A0914105219165
:10066000AC014F5D5A4FA40FB52FB11D2C930196CD
:10067000861798F380914105680F6093410580E0EB
:10068000089581E0089508958FEF9FEF08958FEF0B
:100690009FEF089580911A0590E0919581959109B9
:1006A0000895CF93DF93CB01EA01642F0E941C03CE
:1006B000CE01DF91CF910895CF93DF931F92CDB7F5
:1006C000DEB7698361E0CE0101960E941C0381E0E0
:1006D00090E00F90DF91CF91089590E080E0089531
:1006E00087E30E947A02893E23E092071CF0109271
:1006F000970508958233910524F483E0809397054C
:100700000895833C910514F481E0F8CF8C3721E003
:10071000920714F482E0F2CF8B3222E0920714F4B5
:1007200084E0ECCF8631934014F785E0E7CFCF9299
:10073000DF92EF92FF921F93CF93DF93162FD42F68
:10074000E0911505C7E2F0E08C9FE00DF11D11244A
:10075000E45CFE4FE491C090BE05D090BF05E090F0
:10076000C005F090C1056E2F70E090E080E00E941F
:100770006A17A70196010E941F180E9439176093FB
:100780001405E0911505F0E01C9FE00DF11D11240A
:10079000E45CFE4F649170E090E080E00E946A1794
:1007A000A70196010E941F180E9439176093130534
:1007B000E0911505F0E0DC9FE00DF11D1124E45CF3
:1007C000FE4F649170E090E080E00E946A17A701FC
:1007D00096010E941F180E9439176093120580919C
:1007E00015058F5F80931505873210F0109215055F
:1007F0008091140590E090932901809328018091C5
:10080000130590E090932B0180932A0180911205AB
:1008100090E090932D0180932C0160918F05709151
:10082000900580919105909192050E9439177093DF
:1008300089006093880084E20E94230261E0892B92
:1008400009F060E084E2DF91CF911F91FF90EF907B
:10085000DF90CF900C944C02FC0101900020E9F74E
:100860003197AF01481B590BBC018AED95E00C9400
:10087000EE028F929F92AF92BF920F931F93CF93EE
:10088000DF93CDB7DEB7A1970FB6F894DEBF0FBEEA
:10089000CDBF19A2423008F44AE08E010F5D1F4F10
:1008A000842E912CB12CA12CA50194010E941D161F
:1008B000E62FB901CA01EA30F4F4E05DD801EE9305
:1008C0008D01232B242B252B79F790E080E01097C6
:1008D00019F0CD010E942C04A1960FB6F894DEBF4A
:1008E0000FBECDBFDF91CF911F910F91BF90AF9001
:1008F0009F908F900895E95CE1CF0C942C04CF93E6
:10090000DF93EC0160E08E810E944C0261E08E81F9
:100910000E944C0260E08E810E944C028BE891E0C4
:100920000197F1F7DF91CF910895CF92DF92EF9287
:10093000FF920F931F93CF93DF936C017C0187E0AD
:10094000E80EF11CD0E0C0E0062F10E0B8010C2E3C
:1009500002C0759567950A94E2F76170F70181917D
:100960007F010E944C022196C430D10579F7C6015F
:10097000DF91CF911F910F91FF90EF90DF90CF907B
:100980000C947F04CF92DF92EF92FF920F931F930C
:10099000CF93DF93EC01F62E642F8C810E944C02E2
:1009A0008D818F3F19F060E00E944C020F2D10E006
:1009B0008F8584FF25C06E0187E0C80ED11CF12C05
:1009C000E12CB8010E2C02C0759567950A94E2F7E8
:1009D0006170F60181916F010E944C02FFEFEF1AE6
:1009E000FF0A88E0E816F10461F7CE01DF91CF91AC
:1009F0001F910F91FF90EF90DF90CF900C947F04A8
:100A0000B80184E0759567958A95E1F7CE010E945B
:100A100095046F2DCE01DF91CF911F910F91FF9023
:100A2000EF90DF90CF900C94950440E0682F8AED12
:100A300095E00C94C20481E00E9415058BE39FE1D0
:100A40000197F1F70895CF93DF93613029F09091EA
:100A5000E90598609093E9056093ED051092EE0525
:100A600090E49093EF058093F005805C8093F1050E
:100A70008091DE050E949D018091DF058F3F11F07E
:100A80000E949D018091E0050E949D01CAEDD5E084
:100A90009E012A5D35408091E90584FD0AC084E00D
:100AA00090E02196281739073CF48E810E949D0121
:100AB000EFCF88E090E0F5CF8BE39DE00197F1F771
:100AC00060E08091DE050E944C0260E08091E005CC
:100AD0000E944C028091DF058F3F19F060E00E9478
:100AE0004C028091E90584FD34C063E08AED95E015
:100AF0000E949504CBE4D6E4CE010197F1F763E0C0
:100B00008AED95E00E9495042197F1F763E08AED64
:100B100095E00E94950483E592E00197F1F762E089
:100B20008AED95E00E9495048091E90580620E941B
:100B3000150584E08093EA058CE00E9415050E946B
:100B40001B0582E08093EB0586E0DF91CF910C944A
:100B5000150580620E9415058BE496E40197F1F774
:100B60008091E90580620E94150583E592E0019776
:100B7000F1F78091E90580620E941505D5CF6430B8
:100B800009F463E09091ED05691710F06FEF690FBC
:100B9000E62FF0E0E652FA4F9489890F80680C94B2
:100BA000150541E00E94C20481E090E0089541E013
:100BB000682F8AED95E00E94C20481E090E00895DC
:100BC000CF92DF92EF92FF92CF93DF9397FF19C0FE
:100BD0006B017C018DE20E94D705EC016627772727
:100BE000CB016C197D098E099F094AE00E943904E6
:100BF0008C0F9D1FDF91CF91FF90EF90DF90CF90F2
:100C000008954AE0DF91CF91FF90EF90DF90CF9071
:100C10000C943904BC01990F880B990B0C94E005D6
:100C2000CF92DF92EF92FF920F931F93CF93DF93B8
:100C30000091180510911905C0911605D09117055E
:100C40000A301105B4F489E30E947A028C0F9D1FCB
:100C500090931705809316050F5F1F4F109319058A
:100C60000093180561E070E080E090E00E94BC0213
:100C7000DFCFBE01DD0F880B990B0E946A176B0155
:100C80007C01B801110F880B990B0E946A179B0118
:100C9000AC01C701B6010E94C01620E030E040EA76
:100CA00050E40E941F1820E030E040E85AE30E9420
:100CB0001F1825E83BE643EE52E40E941F1860939C
:100CC000B2057093B3058093B4059093B50563E0C6
:100CD0008CE00E94BF0584E292E00E947D04609156
:100CE000B2057091B3058091B4059091B5050E944D
:100CF0003217CB010E940A0688E292E00E947D042E
:100D000010921705109216051092190510921805E9
:100D1000DF91CF911F910F91FF90EF90DF90CF90D7
:100D200008951F93CF93DF9385ED8093BC0080914E
:100D30001D0590911E05A0911F05B09120050796F5
:100D4000A11DB11D23E0B695A795979587952A9586
:100D5000D1F72091BC0024FD03C01092650552C05C
:100D600040911D0550911E0560911F057091200551
:100D7000452B462B472B69F30097A105B10541F0A0
:100D80002AE22A95F1F700C00197A109B109E1CF44
:100D900080911C05C1E0C0931B05882399F1D09177
:100DA000B8001091BA008091BC008A7B8093BC008F
:100DB00060E084E10E944C0260E085E10E944C0208
:100DC00010926505C09367051092660561E084E1A5
:100DD0000E944C0261E085E10E944C028091B900C2
:100DE0008E7F8093B9008091B9008D7F8093B90088
:100DF00088E48093B80085E48093BC001093BA0027
:100E0000D093B800DF91CF911F9108950C94DD1518
:100E10001F93CF93DF93EC01162F672F0E940607D5
:100E2000612FCE010196DF91CF911F910C9406079F
:100E30002F923F924F925F926F927F928F929F92EA
:100E4000AF92BF92CF92DF92EF92FF920F931F93D8
:100E5000CF93DF930E941B050AEF10E0C4E1D0E0BE
:100E600086E4282E312C80919405882309F429C327
:100E700060E080E00E94BF058DE292E00E947D0468
:100E800080910002909101020697B1F461E080E048
:100E90000E94BF058AE392E00E947D0462E080E048
:100EA0000E94BF0580911602909117020E940A06C7
:100EB0008FE492E00E947D048091000290910102F3
:100EC000079779F561E080E00E94BF0587E592E031
:100ED0000E947D0462E080E00E94BF056091A5054C
:100EE0007091A605072E000C880B990B0E946A17BB
:100EF00020E030E04AE754E40E94C0166B017C0118
:100F00004B015C01AC019B010E94D218882309F4BB
:100F100039C185E792E00E942C0481E892E00E94AA
:100F20007D0480910002909101020897B1F461E084
:100F300080E00E94BF0588E892E00E947D0462E0A4
:100F400080E00E94BF0580918D0590918E050E94E2
:100F50000A068CE992E00E947D0480910002909143
:100F600001020997B1F461E080E00E94BF0583EAC5
:100F700092E00E947D0462E080E00E94BF058091C3
:100F80008B0590918C050E940A0687EB92E00E94E7
:100F90007D0480910002909101020A97B1F461E012
:100FA00080E00E94BF058DEB92E00E947D0462E02C
:100FB00080E00E94BF058091AB059091AC050E9436
:100FC0000A068FEC92E00E947D04809100029091CD
:100FD00001020B97B1F461E080E00E94BF0586ED4D
:100FE00092E00E947D0462E080E00E94BF05809153
:100FF000B6059091B7050E940A068FEC92E00E9418
:101000007D0480910002909101020C97B1F461E09F
:1010100080E00E94BF0587EE92E00E947D0462E0BE
:1010200080E00E94BF058091C2059091C3050E9497
:101030000A068EEF92E00E947D04809195059091C2
:101040009605459724F0109296051092950580918B
:101050009505909196050196909396058093950538
:1010600020919705253009F052C0449709F04FC0F0
:1010700061E090E080E00E9406076091160281E046
:1010800090E00E94060760918D0582E090E00E944A
:10109000060760918B0583E090E00E94060760914F
:1010A000AB057091AC0584E090E00E940807609168
:1010B000B6057091B70586E090E00E940807609140
:1010C000C20588E090E00E9406076091A505709136
:1010D000A60589E090E00E9408070E941B0561E0D8
:1010E00080E00E94BF0587E093E00E947D0460EDF0
:1010F00077E080E090E00E94BC020E941B0586E041
:1011000090E090930102809300021092940566E9AA
:1011100070E080E090E00E94BC020E947003809129
:101120009705823009F41AC108F0BCC0813009F07B
:101130009ACE80910002909101028630910509F0CB
:10114000C7C020911602309117022F5F3F4F2734FE
:1011500031050CF47FC130921702209216028B30B9
:10116000910509F0DBC08091B6059091B705019615
:10117000813421E092070CF0EEC09093B705809384
:10118000B605E2C026013701E89477F82FEF3FEF6C
:101190004FE75FE7C301B2010E94D21881110DC071
:1011A0002FEF3FEF4FE75FE7C301B2010E94BB168D
:1011B00018161CF489E792E0AECE2FEF3FEF4FE711
:1011C0005FE4C701B6010E941A1818161CF48DE7D7
:1011D00092E0A1CE2FEF3FEF4FE75FECC701B601E2
:1011E0000E94BB1687FDF3CF20E030E0A901C701C4
:1011F000B6010E94BB1687FF09C08DE20E94D70589
:1012000046015701B7FAB094B7F8B0942AE037ED29
:1012100043EA5BE3C501B4010E944F164B015C0138
:101220000E9439176B017C010E9468179B01AC0179
:10123000C501B4010E944E164B015C014AE0C70192
:10124000B6010E9439048EE20E94D70520E030E00A
:1012500040E251E4C501B4010E941F184B015C013A
:101260000E9439176B01F12CE12C4AE0C701B6014D
:101270000E943904C701B6010E9468179B01AC01A6
:10128000C501B4010E944E1620E030E040E251E476
:101290000E941F180E94391790E080E04AE00E94E7
:1012A00039043BCE833009F4BFC0843009F0DBCD74
:1012B000809100029091010201968D3091050CF40D
:1012C000BBC086E090E090930102809300023CC096
:1012D0008730910589F42091A5053091A6052C59F8
:1012E0003F4F21324EE4340714F020E23EE43093C5
:1012F000A6052093A50533CF8830910509F0AFC02E
:1013000020918D0530918E052F5F3F4F253131059E
:101310000CF4BDC0D0938E05C0938D050C97A1F43D
:101320002CE330E03093C3052093C2050DC08091BB
:101330008B0590918C050196853191050CF46FC059
:10134000D0938C05C0938B056AE070E080E090E05C
:101350000E94BC0288CD80E491E00FCF8091000212
:10136000909101028630910501F52091160230918D
:101370001702215031092E31310514F42EE130E0ED
:1013800030931702209316028B309105A1F58091BE
:10139000B6059091B70501978B3F91050CF4EDCE02
:1013A0001093B7050093B605CFCF8730910581F430
:1013B0002091A5053091A605245631092436310522
:1013C00014F424E630E03093A6052093A505DCCF85
:1013D0008830910509F060C020918D0530918E050F
:1013E000215031091216130614F021E030E0309339
:1013F0008E0520938D050C9709F0A6CF82E390E02F
:101400009093C3058093C2059FCF80918B059091E7
:101410008C0501971816190614F081E090E090935E
:101420008C0580938B0590CF8091000290910102F2
:101430000197863091053CF0909301028093000261
:101440000E941B0510CD2CE030E030930102209368
:1014500000027ACF309317022093160280CE893093
:10146000910509F464CF8A30910509F078CE809116
:10147000AB059091AC050196813931E0930714F0EA
:1014800080E991E09093AC058093AB055DCF3093FC
:101490008E0520938D0542CF8930910509F4B5CF93
:1014A0008A30910509F070CF8091AB059091AC0521
:1014B00001978A3F910534F71093AC050093AB0573
:1014C00043CFDF91CF911F910F91FF90EF90DF906D
:1014D000CF90BF90AF909F908F907F906F905F90D4
:1014E0004F903F902F9008950C94D5150F931F9314
:1014F000CF938C010E94740AC82FC80101960E94E4
:10150000740A2C2F30E0322F2227820F932F911D47
:10151000CF911F910F9108951F920F920FB60F92C6
:1015200011242F933F938F939F93AF93BF938091F9
:10153000C5059091C605A091C705B091C805309129
:10154000C40523E0230F2D3758F50196A11DB11DC9
:101550002093C4058093C5059093C605A093C70545
:10156000B093C8058091C9059091CA05A091CB059B
:10157000B091CC050196A11DB11D8093C905909332
:10158000CA05A093CB05B093CC05BF91AF919F91B5
:101590008F913F912F910F900FBE0F901F90189534
:1015A00026E8230F0296A11DB11DD2CF1F920F92E4
:1015B0000FB60F9211240BB60F922F933F934F93B8
:1015C0005F936F937F938F939F93AF93BF93EF93AB
:1015D000FF938091B900887F803609F44DC008F0F0
:1015E00040C0883209F4A7C028F5803109F49BC0B7
:1015F000C8F4882309F4F7C0883009F494C0FF9137
:10160000EF91BF91AF919F918F917F916F915F917A
:101610004F913F912F910F900BBE0F900FBE0F90E7
:101620001F901895883109F486C0803241F7809365
:10163000640514C0803409F49BC040F48033B9F3CE
:101640008833E9F68093640585ECAEC0803509F4F3
:1016500083C0883509F494C0883489F60E949106C5
:10166000CECF883909F48AC038F5883729F050F48C
:10167000883611F0803719F683E080936505109263
:10168000630555C0883809F479C0803919F080386D
:1016900009F0B5CF80916305803208F06FC0E0910A
:1016A000630581E08E0F809363058091BB00F0E0BD
:1016B000ED5BFA4F80833BC0803B39F0D0F4803A39
:1016C00009F477C0883A09F09ACF84E080936505E1
:1016D0001092420510924105F0E0E0E019958091EA
:1016E000410581110FC081E08093410510922105D1
:1016F00009C0803C09F4A8CF883C09F4A5CF883BF9
:1017000009F07DCFE091420581E08E0F8093420584
:10171000F0E0EF5DFA4F80818093BB00909142052D
:101720008091410529C080918A058093BB0085EC9A
:101730008093BC0064CF90918905809188059817AB
:1017400058F5E091890581E08E0F80938905F0E0DE
:10175000E859FA4F8081E9CFE091890581E08E0F49
:10176000809389058091BB00F0E0E859FA4F8083AF
:1017700090918905809188059817C8F285E8D8CF9F
:10178000E091890581E08E0F809389058091BB00EF
:10179000F0E0E859FA4F80838091670581115ECFB0
:1017A00081E08093660584EA8093BC001092650511
:1017B00026CF85EC8093BC0010926505809163056F
:1017C000803230F4E0916305F0E0ED5BFA4F108277
:1017D0006091630570E083E495E0F0E0E0E0199546
:1017E000109263050CCF1092640538CF1F920F92B0
:1017F0000FB60F9211240BB60F928F929F92AF9259
:10180000BF92CF92DF92EF92FF922F933F934F932D
:101810005F936F937F938F939F93AF93BF93EF9358
:10182000FF938091AD059091AE05019709F058C0E6
:1018300020918D0530918E0548EC429FC001439F59
:10184000900D1124845D9E4F909399008093980091
:10185000C0901202D0901302E0901402F090150292
:101860008090BA059090BB05A090BC05B090BD05D6
:10187000A5019401C701B6010E94BB1687FF10C0E5
:1018800020E030E040E85EE3C701B6010E944F1659
:1018900060931202709313028093140290931502C6
:1018A000C0901202D0901302E0901402F090150242
:1018B000A7019601C501B4010E94BB1687FF10C0A5
:1018C00020E030E040E85EE3C701B6010E944E161A
:1018D0006093120270931302809314029093150286
:1018E0008091AD059091AE05892B31F520918B0546
:1018F00030918C0548EC429FC001439F900D11240C
:10190000845D9E4F909399008093980020E030E092
:1019100040E85EE36091120270911302809114021C
:10192000909115020E944E1660931202709313025A
:101930008093140290931502FF91EF91BF91AF91A4
:101940009F918F917F916F915F914F913F912F91D7
:10195000FF90EF90DF90CF90BF90AF909F908F90CF
:101960000F900BBE0F900FBE0F901F9018951F92F7
:101970000F920FB60F9211240BB60F922F933F9335
:101980004F935F936F937F938F939F93AF93BF9387
:10199000EF93FF9384E20E94230261E0892B09F018
:1019A00060E084E20E944C028091B105811108C080
:1019B0001092120210921302109214021092150249
:1019C0008091B10581112BC0F89410928000109283
:1019D00081001092850010928400109220011092D4
:1019E000210180E090E0A0EEB0E480931202909399
:1019F0001302A0931402B09315021092AE05109238
:101A0000AD051092150510920D0510920C0510925F
:101A10000F0510920E05109211051092100520E08E
:101A200030E040E85FE36091BE057091BF058091B2
:101A3000C0059091C1050E941A18181664F480E040
:101A400090E0A0E8BFE38093BE059093BF05A0930C
:101A5000C005B093C1058091B1058130B1F028F186
:101A6000823091F1FF91EF91BF91AF919F918F9152
:101A70007F916F915F914F913F912F910F900BBE8E
:101A80000F900FBE0F901F90189510920D05109299
:101A90000C0581E090E090930F0580930E0582E0A5
:101AA00090E090931105809310054091100550919E
:101AB000110560910E0570910F0580910C059091B4
:101AC0000D050E949703CECF10920D0510920C05C4
:101AD00082E090E090930F0580930E0581E090E006
:101AE000E0CFEAEDF5E0138212828CE192E091837F
:101AF000808386E184838FEF858387E1868388E115
:101B0000878389E180878AE181878BE182871386D9
:101B1000148615861686178661E080E10E942305EB
:101B2000EDECF5E088E380838AE197E6ACE9B0E488
:101B300081839283A383B48384E6818783EF94E0D7
:101B4000A5E3BFE385839683A783B0878FEF91E0FA
:101B50009387828785E184870895CF93DF9300D0B0
:101B60001F92CDB7DEB7789484B5826084BD84B50A
:101B7000816084BD85B5826085BD85B5816085BD88
:101B800080916E00816080936E0010928100809140
:101B900081008260809381008091810081608093C8
:101BA0008100809180008160809380008091B100ED
:101BB00084608093B1008091B00081608093B00018
:101BC000809191008260809391008091910081606A
:101BD000809391008091900081608093900080912B
:101BE000A10082608093A1008091A1008160809318
:101BF000A1008091A00081608093A00080912101CC
:101C00008260809321018091210181608093210174
:101C10008091200181608093200180917A0084600E
:101C200080937A0080917A00826080937A0080911C
:101C30007A00816080937A0080917A008068809336
:101C40007A001092C10084E20E949D0160E084E26B
:101C50000E944C0281E20E949D0160E081E20E94AC
:101C60004C0283E20E949D0161E083E20E944C02EB
:101C700082E20E949D0161E082E20E944C0280E2C9
:101C80000E949D0160E080E20E944C0280E40E947C
:101C900015052AE032E03A83298302E112E0E98166
:101CA000FA816191FA83E9838AED95E00E94D1057A
:101CB00029813A810217130791F788E40E941505DC
:101CC00082E092E09A8389830AE012E0E981FA8156
:101CD0006191FA83E9838AED95E00E94D10529811B
:101CE0003A810217130791F764E084E10E9423050B
:101CF00060E080E00E94BF058AE193E00E947D04DD
:101D000061E083E00E94BF058EE293E00E947D04C3
:101D100062E083E00E94BF058CE393E00E947D04B3
:101D200063E084E00E94BF058BE493E00E947D04A1
:101D300064E670E080E090E00E94BC020E941B0517
:101D400060E083E00E94BF0586E593E00E947D0489
:101D500061E080E00E94BF0585E693E00E947D047B
:101D600062E080E00E94BF058AE793E00E947D0464
:101D700063E081E00E94BF058EE893E00E947D044D
:101D800064E670E080E090E00E94BC020E941B05C7
:101D900060E080E00E94BF0580EA93E00E947D043D
:101DA00061E080E00E94BF058BEA93E00E947D0421
:101DB00062E080E00E94BF0586EB93E00E947D0414
:101DC00063E080E00E94BF0584EC93E00E947D0404
:101DD00064E670E080E090E00E94BC020E941B0577
:101DE00090E080E00E94740A8F3F29F481E08093A4
:101DF00094050E94180781E090E00E94740A90E028
:101E0000909317028093160282E090E00E94740A79
:101E100090E090938E0580938D0583E090E00E9482
:101E2000740A90E090938C0580938B0584E090E099
:101E30000E94760A9093AC058093AB0586E090E013
:101E40000E94760A9093B7058093B60588E090E0EB
:101E50000E94740A90E09093C3058093C20589E0C4
:101E600090E00E94760A9093A6058093A50560E015
:101E700080E00E94BF058CEC93E00E947D0461E04D
:101E800085E00E94BF058DED93E00E947D040E94D5
:101E900097022B013C01C12CD12C7601812C912C75
:101EA00054010E94970264197509860997096034E4
:101EB0007C498105910570F48091CD050E947A02DC
:101EC000880E991EA11CB11C8FEFC81AD80AE80A07
:101ED000F80AE7CFC501B401A70196010E941D16BB
:101EE0003093D8052093D70568EC70E080E090E04F
:101EF0000E94BC0262E087E00E94BF0589EE93E089
:101F00000E947D0468EC70E080E090E00E94BC02DA
:101F10000E941B0560E080E00E94BF058FEE93E009
:101F20000E947D0468EC70E080E090E00E94BC02BA
:101F300060E083E20E944C0260E082E20E944C0278
:101F400068EC70E080E090E00E94BC0268EC70E019
:101F500080E090E00E94BC0262E080E00E94BF0549
:101F600084E094E00E947D0468EC70E080E090E002
:101F70000E94BC0261E080E20E944C020E941B05AC
:101F800061E080E00E94BF0587E194E00E947D044B
:101F900068EC70E080E090E00E94BC0263E087E0C3
:101FA0000E94BF0588E294E00E947D040E94100612
:101FB00068EC70E080E090E00E94BC02C090B20546
:101FC000D090B305E090B405F090B5056091B605EA
:101FD0007091B705072E000C880B990B0E946A17A9
:101FE000A70196010E941A1818168CF560E083E28A
:101FF0000E944C0261E082E20E944C020E941B059A
:1020000060E080E00E94BF0584E394E00E947D04CC
:1020100061E080E00E94BF0586E494E00E947D04B8
:1020200062E080E00E94BF058FE494E00E947D049E
:1020300063E080E00E94BF0580E694E00E947D049A
:1020400064E670E080E090E00E94BC02B1CF609155
:10205000AB057091AC05072E000C880B990B0E9404
:102060006A179B01AC01C701B6010E941A18181625
:102070007CF560E083E20E944C0261E082E20E9413
:102080004C020E941B0560E080E00E94BF0582E7D1
:1020900094E00E947D0461E080E00E94BF0586E438
:1020A00094E00E947D0462E080E00E94BF058FE41E
:1020B00094E00E947D0463E080E00E94BF0580E61A
:1020C00094E00E947D0468EE73E080E090E0BCCF75
:1020D00068EC70E080E090E00E94BC020E941B056A
:1020E00061E083E00E94BF0584E894E00E947D04E3
:1020F00064EF71E080E090E00E94BC028EE20E94FA
:102100009D018CE20E949D018DE20E949D010E9432
:102110001B05F8948AEA8093200182E180932101D3
:1021200086EA90E09093270180932601109229017E
:102130001092280110922B0110922A0110922D0169
:1021400010922C0110928000109281001092850054
:102150001092840080EF94EE909389008093880021
:1021600089E080938100109290001092910010926B
:1021700095001092940080E991E0909399008093EB
:1021800098008CE08093910080916F008260809332
:102190006F00809171008260809371007894C12CEF
:1021A000D12C90EEE92E90E4F92E0E9470038090DD
:1021B000160290901702092C000CAA08BB0886E3AF
:1021C0000E947A029A8389836091C2057091C30547
:1021D000072E000C880B990B0E946A179B01AC011B
:1021E0006091120270911302809114029091150275
:1021F0000E94C0166093BE057093BF058093C00512
:102200009093C105A5019401275031094109510955
:10221000A981BA810E9415162FEF33E040E050E00B
:102220000E94EB15CA01B901695F7F4F8F4F9F4F25
:10223000072E000C880B990B0E946A176093BA0551
:102240007093BB058093BC059093BD0560E080E072
:102250000E94BF0584E994E00E947D046091BA0564
:102260007091BB058091BC059091BD050E9432170D
:10227000CB010E940A068CE994E00E947D0460E094
:102280008FE00E94BF0580EA94E00E947D0462E036
:102290008FE00E94BF0583E792E00E947D0461E029
:1022A00080E00E94BF0586EA94E00E947D04809051
:1022B000120290901302A0901402B090150220E038
:1022C00030E040EE50E4C501B4010E941A1887FDC9
:1022D00019C020E030E0A901C501B4010E941A181C
:1022E00020E030E040E05FE387FD76C1C501B40146
:1022F0000E944F160E9432170E94E0058CE994E07C
:102300000E947D0420E030E040EE50E46091120233
:102310007091130280911402909115020E94BB16D5
:10232000181684F061E080E00E94BF0586EA94E020
:102330000E947D0481EB94E00E947D048CE994E08E
:102340000E947D0420E030E040EE50E460911202F3
:102350007091130280911402909115020E941A1834
:1023600087FD1FC062E080E00E94BF0583EB94E020
:102370000E947D0420E030E048EC52E46091BE050C
:102380007091BF058091C0059091C1050E941F18F2
:102390000E943217CB010E940A068AEB94E00E9449
:1023A0007D0420E030E040EE50E460911202709134
:1023B000130280911402909115020E94BB16181608
:1023C00084F062E080E00E94BF0583EB94E00E940D
:1023D0007D0481EB94E00E947D048AEB94E00E94EE
:1023E0007D0464E080E00E94BF058DEB94E00E94D4
:1023F0007D04609198057091990580919A0590915E
:102400009B050E94E00580EC94E00E947D04809191
:10241000B105811108C061E08FE00E94BF0586EC24
:1024200094E00E947D048091B105813061F5809136
:102430009305882391F061E08FE00E94BF058FE64D
:1024400092E00E947D0461E081E10E94BF0580E08E
:102450000E94D70580E00E94D705809193058111E5
:1024600012C061E08FE00E94BF058FE692E00E94FB
:102470007D0461E08FE00E94BF0580E00E94D705E7
:1024800080E00E94D7058091B105823061F580918E
:102490009305882391F061E08FE00E94BF058FE6ED
:1024A00092E00E947D0461E08FE00E94BF0581E020
:1024B0000E94D70581E00E94D70580919305811184
:1024C00012C061E08FE00E94BF058FE692E00E949B
:1024D0007D0461E081E10E94BF0581E00E94D70593
:1024E00081E00E94D7058091B8059091B9054A977F
:1024F00031F40E9410061092B9051092B80580912F
:10250000B8059091B90501969093B9058093B805E7
:102510008090B2059090B305A090B405B090B50539
:102520006091B6057091B705072E000C880B990BCA
:102530000E946A17A50194010E941A1818160CF03F
:1025400050C060E081E20E944C021092B1051092EE
:10255000B0051092AF051092200110922101C09297
:102560001202D0921302E0921402F092150210921D
:10257000AE051092AD0560E083E20E944C0261E07E
:1025800082E20E944C020E941B0560E080E00E94F3
:10259000BF0584E394E00E947D0461E080E00E9436
:1025A000BF0586E494E00E947D0462E080E00E9422
:1025B000BF058FE494E00E947D0463E080E00E9408
:1025C000BF0580E694E00E947D0468EE73E080E041
:1025D00090E00E94BC029CCFC501B4010E944E163F
:1025E00089CE6091AB057091AC05072E000C880B6D
:1025F000990B0E946A179B01AC01C501B4010E94AE
:102600001A1818165CF560E081E20E944C021092E4
:10261000B1051092B0051092AF05109220011092F2
:102620002101C0921202D0921302E0921402F092A1
:1026300015021092AE051092AD0560E083E20E9493
:102640004C0261E082E20E944C020E941B0560E0A5
:1026500080E00E94BF0582E794E09DCF0E94970230
:102660002B013C018091CD050E947A029C838B83D3
:102670009A83898310E000E0312C212C0E9497027C
:10268000641975098609970960327E4481059105B0
:1026900008F042C0FFEF2F1A3F0A8091CD050E943B
:1026A0007A022B813C818217930714F49C838B83DD
:1026B000E981FA81E817F90714F49A838983209154
:1026C000D7053091D805812C912C54012817390752
:1026D00049F0821B930BBC0190E080E00E946817D8
:1026E0004B015C016091D90570E090E080E00E94B0
:1026F0006A172091CE053091CF054091D0055091B9
:10270000D1050E94C016A50194010E941A1887FDE8
:10271000B5CF0F5F1F4FB2CF29813A818B819C814A
:10272000281B390B3A832983B80190E080E00E948E
:1027300068174B015C01B10190E080E00E946817CE
:102740002B013C012DEC3CEC4CEC5CE30E941F188F
:102750009B01AC01C501B4010E941A1818160CF0B7
:1027600018C2A3019201C501B4010E94C0169B01C9
:10277000AC0160E070E080E89FE30E944E160E948A
:10278000921820E030E040E05FE30E941F1823EF42
:1027900034E045EB5FE30E941F184B015C0180921F
:1027A000D2059092D305A092D405B092D505E981C7
:1027B000FA81BF01FF0F880B990B0E946A1720E076
:1027C00030E04AEF53E40E941F182091CE0530916B
:1027D000CF054091D0055091D1050E941F18A50149
:1027E00094010E941F184B015C016091D60570E0B6
:1027F00090E080E00E946A179B01AC01C501B40122
:102800000E94C0160E943217AB01770F660B770B40
:102810004093A7055093A8056093A9057093AA0556
:102820008091A5059091A605092E000CAA0BBB0B63
:1028300084179507A607B7070CF0B4C11092AE0530
:102840001092AD0581E08093A4058091A4058823B2
:1028500009F446C01092B1051092B0051092AF0570
:102860001092200110922101C0921202D092130204
:10287000E0921402F09215021092AE051092AD058E
:1028800064EF71E080E090E00E94BC020E941B05B2
:1028900060E080E00E94BF058CEC94E00E947D0423
:1028A00061E080E00E94BF0588ED94E00E947D0415
:1028B00062E080E00E94BF058DEE94E00E947D04FE
:1028C00063E080E00E94BF058FEF94E00E947D04EA
:1028D00064EF71E080E090E00E94BC020E941B0562
:1028E0006091A0057091A1058091A2059091A3052A
:1028F0008090A7059090A805A090A905B090AA0582
:10290000680D791D8A1D9B1D6093A0057093A1051C
:102910008093A2059093A30520919C0530919D057D
:1029200040919E0550919F05253131054105510586
:10293000D4F00E94EB1520939805309399054093AD
:102940009A0550939B051092A0051092A105109234
:10295000A2051092A30510929C0510929D0510925D
:102960009E0510929F0580919C0590919D05A091D8
:102970009E05B0919F050196A11DB11D80939C05F8
:1029800090939D05A0939E05B0939F058091AF0500
:102990009091B005892B09F0A5C0809197058530ED
:1029A00021F41092AE051092AD0580919705853007
:1029B00079F48091B10581110BC0809195059091BA
:1029C0009605449729F481E0809394050E941807A6
:1029D00020E030E040EE50E460911202709113026A
:1029E00080911402909115020E94BB1687FF1AC0B5
:1029F00060E081E20E944C021092B1051092B00595
:102A00001092AF051092200110922101C092120283
:102A1000D0921302E0921402F09215021092AE05C9
:102A20001092AD0580919705833061F58091B105D5
:102A3000811128C08091AD059091AE05892B11F5CB
:102A400061E081E20E944C02C0921202D092130215
:102A5000E0921402F092150281E08093B105109289
:102A6000B0051092AF0521E030E03093AE05209321
:102A7000AD0539E0309381008AEA8093200192E12C
:102A80009093210180919705843061F58091B10583
:102A9000811128C08091AD059091AE05892B11F56B
:102AA00061E081E20E944C02C0921202D0921302B5
:102AB000E0921402F092150282E08093B105109228
:102AC000B0051092AF05E1E0F0E0F093AE05E093C1
:102AD000AD05F9E0F09381002AEA2093200132E16C
:102AE000309321018090120290901302A090140262
:102AF000B0901502A501940160E070E080E89FE3CA
:102B00000E94C01620E030E04CE152E40E94C01662
:102B10009B01AC0160E070E080E89FE30E94C0167A
:102B20009B01AC0160E074E284E79BE40E94C01664
:102B300060938F0570939005809391059093920513
:102B40008092BA059092BB05A092BC05B092BD05DB
:102B50008091950590919605459754F08091930545
:102B600091E0892780939305109296051092950520
:102B70008091950590919605019690939605809386
:102B8000950580E090E0892B09F40FCB0E940000AE
:102B90000CCB83EF882E84E0982E85E3A82E8FE35C
:102BA000B82EFDCD1092A40550CEF999FECF92BD5E
:102BB00081BDF89A992780B50895262FF999FECFFF
:102BC0001FBA92BD81BD20BD0FB6F894FA9AF99A4A
:102BD0000FBE01960895052E97FB1EF400940E94E7
:102BE000021657FD07D00E941D1607FC03D04EF4B5
:102BF0000C94021650954095309521953F4F4F4FBC
:102C00005F4F089590958095709561957F4F8F4F98
:102C10009F4F08950E943F16A59F900DB49F900D61
:102C2000A49F800D911D11240895B7FF0C940A16DE
:102C30000E940A16821B930B0895A1E21A2EAA1B6A
:102C4000BB1BFD010DC0AA1FBB1FEE1FFF1FA2175C
:102C5000B307E407F50720F0A21BB30BE40BF50B59
:102C6000661F771F881F991F1A9469F760957095E2
:102C7000809590959B01AC01BD01CF010895A29F65
:102C8000B001B39FC001A39F700D811D1124911D40
:102C9000B29F700D811D1124911D08955058BB27BE
:102CA000AA270E9466160C94E0170E94D21738F0EB
:102CB0000E94D91720F039F49F3F19F426F40C94A0
:102CC000CF170EF4E095E7FB0C94C917E92F0E948B
:102CD000F11758F3BA17620773078407950720F0B6
:102CE00079F4A6F50C9413180EF4E0950B2EBA2F78
:102CF000A02D0B01B90190010C01CA01A001112402
:102D0000FF27591B99F0593F50F4503E68F11A16AD
:102D1000F040A22F232F342F4427585FF3CF46953E
:102D200037952795A795F0405395C9F77EF41F1660
:102D3000BA0B620B730B840BBAF09150A1F0FF0F2A
:102D4000BB1F661F771F881FC2F70EC0BA0F621F16
:102D5000731F841F48F4879577956795B795F79506
:102D60009E3F08F0B0CF9395880F08F09927EE0F9B
:102D70009795879508950E94A51708F481E0089516
:102D80000E94D4160C94E0170E94D91758F00E94A4
:102D9000D21740F029F45F3F29F00C94C917511164
:102DA0000C9414180C94CF170E94F11768F3992310
:102DB000B1F3552391F3951B550BBB27AA27621737
:102DC0007307840738F09F5F5F4F220F331F441F44
:102DD000AA1FA9F335D00E2E3AF0E0E832D0915078
:102DE0005040E695001CCAF72BD0FE2F29D0660F65
:102DF000771F881FBB1F261737074807AB07B0E8A8
:102E000009F0BB0B802DBF01FF2793585F4F3AF0AD
:102E10009E3F510578F00C94C9170C9414185F3F2D
:102E2000E4F3983ED4F3869577956795B795F79533
:102E30009F5FC9F7880F911D9695879597F908951B
:102E4000E1E0660F771F881FBB1F621773078407B7
:102E5000BA0720F0621B730B840BBA0BEE1F88F7C6
:102E6000E09508950E9439176894B1110C941418D4
:102E700008950E94F91788F09F5798F0B92F992765
:102E8000B751B0F0E1F0660F771F881F991F1AF055
:102E9000BA95C9F714C0B13091F00E941318B1E08F
:102EA00008950C941318672F782F8827B85F39F08E
:102EB000B93FCCF3869577956795B395D9F73EF4EE
:102EC00090958095709561957F4F8F4F9F4F089596
:102ED000E89409C097FB3EF49095809570956195B4
:102EE0007F4F8F4F9F4F9923A9F0F92F96E9BB276A
:102EF0009395F695879577956795B795F111F8CFE6
:102F0000FAF4BB0F11F460FF1BC06F5F7F4F8F4F50
:102F10009F4F16C0882311F096E911C0772321F046
:102F20009EE8872F762F05C0662371F096E8862FDE
:102F300070E060E02AF09A95660F771F881FDAF735
:102F4000880F9695879597F90895990F0008550F62
:102F5000AA0BE0E8FEEF16161706E807F907C0F01F
:102F600012161306E407F50798F0621B730B840B27
:102F7000950B39F40A2661F0232B242B252B21F401
:102F800008950A2609F4A140A6958FEF811D811DA1
:102F9000089597F99F6780E870E060E008959FEFDB
:102FA00080EC089500240A941616170618060906E0
:102FB000089500240A9412161306140605060895AF
:102FC000092E0394000C11F4882352F0BB0F40F437
:102FD000BF2B11F460FF04C06F5F7F4F8F4F9F4F77
:102FE000089557FD9058440F551F59F05F3F71F0F9
:102FF0004795880F97FB991F61F09F3F79F0879560
:103000000895121613061406551FF2CF4695F1DFE8
:1030100008C0161617061806991FF1CF8695710578
:10302000610508940895E894BB2766277727CB01AC
:1030300097F908950E94A51708F48FEF08950E944C
:1030400032180C94E0170E94D21738F00E94D9175A
:1030500020F0952311F00C94C9170C94CF1711246C
:103060000C9414180E94F11770F3959FC1F3950FFB
:1030700050E0551F629FF001729FBB27F00DB11DFC
:10308000639FAA27F00DB11DAA1F649F6627B00D8C
:10309000A11D661F829F2227B00DA11D621F739F75
:1030A000B00DA11D621F839FA00D611D221F749F83
:1030B0003327A00D611D231F849F600D211D822FCA
:1030C000762F6A2F11249F5750409AF0F1F08823F1
:1030D0004AF0EE0FFF1FBB1F661F771F881F91501E
:1030E0005040A9F79E3F510580F00C94C9170C94ED
:1030F00014185F3FE4F3983ED4F38695779567956F
:10310000B795F795E7959F5FC1F7FE2B880F911D47
:103110009695879597F9089519F416F40C94CF179E
:103120000C94D7180E94F917B8F39923C9F3B6F392
:103130009F57550B87FF0E94E5180024A0E640EA40
:10314000900180585695979528F4805C660F771FFC
:10315000881F20F026173707480730F4621B730BCF
:10316000840B202931294A2BA695179407942025F2
:1031700031254A2758F7660F771F881F20F026173A
:103180003707480730F4620B730B840B200D311D99
:10319000411DA09581F7B901842F9158880F96950C
:1031A000879508950E94A517880B990B08959F3F56
:1031B00031F0915020F4879577956795B795880FF2
:1031C000911D9695879597F9089591505040660FF7
:1031D000771F881FD2F70895EE0FFF1F881F8BBF40
:1031E0000790F691E02D1994F894FFCF0600080C93
:1031F0000E0F0E0C080002060E1E0E060200000046
:10320000E040320000000000D105EE026D031B0318
:1032100044433D005620202000506F646573617662
:10322000616E6A653A0046726571204D61782020B2
:103230004F75742020202020202000487A20202054
:10324000202000537472756A61206D6F746F726113
:10325000206E6F6D2E202020202020202020202076
:10326000006E616E00696E66006F76660041202018
:1032700020202000557A6C617A6E612072616D7039
:1032800061202873656329007320202020200053CB
:10329000696C617A6E612072616D7061202873655E
:1032A0006329007320202020004443207072656E43
:1032B00061706F6E202020202020005620202020CA
:1032C0002000444320706F646E61706F6E20202078
:1032D00020200046726571206D6F746F7261206EE0
:1032E0006F6D692E202020202000487A2020202089
:1032F00020200020536176656420746F204545507E
:10330000524F4D2121002046616B756C746574200D
:103310007465686E69636B6968006E61756B6120C6
:1033200075204361636B7500556E697665727A69C5
:10333000746574612075004B726167756A657663A8
:1033400075004469706C6F6D736B69207261643ACB
:1033500000536B616C61726E6F2075707261766C78
:103360006A616E6A65006B6172616B7465722E20B2
:1033700074726F66617A6E6F67006173696E6872EE
:103380006F6E6F67206D6F746F726100416C656B5B
:1033900073616E646172004272616B6F636576691E
:1033A000630062726F6A20696E64656B73613A00D4
:1033B000313232302F313700202043757272656E02
:1033C000742073656E736F720063616C6962726101
:1033D00074696F6E004F4B2121210053776974632C
:1033E00068696E6720766F6C74616765206F6E0028
:1033F000436170616369746F7220636861726769A9
:103400006E6700566F6C7461676520636865636BF7
:1034100021212100202020202020202021212100E6
:10342000444320766F6C746167652062656C6F77CA
:1034300020006C696D6974212121005475726E2021
:103440006F666620627265616B657200616E6420F2
:10345000636865636B20737570706C792E004443EC
:1034600020766F6C746167652061626F76652000FD
:1034700053595354454D205245414459212121006F
:103480005A616461746F3A00487A2000534D455286
:103490003A004F7374766172656E6F3A0030005572
:1034A000206F75743A00252000493A006D412020B4
:1034B000200053544F5021004F766572637572722D
:1034C000656E740070726F74656374696F6E2061ED
:1034D0006374697661746564005475726E206F66FA
:1034E0006620627265616B65722C00636865636B50
:0834F000206D6F746F722E0055
:020000040003F7
:10E000000D9489F10D94B2F10D94B2F10D94B2F129
:10E010000D94B2F10D94B2F10D94B2F10D94B2F1F0
:10E020000D94B2F10D94B2F10D94B2F10D94B2F1E0
:10E030000D94B2F10D94B2F10D94B2F10D94B2F1D0
:10E040000D94B2F10D94B2F10D94B2F10D94B2F1C0
:10E050000D94B2F10D94B2F10D94B2F10D94B2F1B0
:10E060000D94B2F10D94B2F10D94B2F10D94B2F1A0
:10E070000D94B2F10D94B2F10D94B2F10D94B2F190
:10E080000D94B2F10D94B2F10D94B2F10D94B2F180
:10E090000D94B2F10D94B2F10D94B2F10D94B2F170
:10E0A0000D94B2F10D94B2F10D94B2F10D94B2F160
:10E0B0000D94B2F10D94B2F10D94B2F10D94B2F150
:10E0C0000D94B2F10D94B2F10D94B2F10D94B2F140
:10E0D0000D94B2F10D94B2F10D94B2F10D94B2F130
:10E0E0000D94B2F141546D656761323536300041AF
:10E0F000726475696E6F206578706C6F72657220DE
:10E1000073746B3530305632206279204D4C530099
:10E11000426F6F746C6F616465723E004875683F52
:10E1200000436F6D70696C6564206F6E203D200048
:10E130004350552054797065202020203D20005FF9
:10E140005F4156525F415243485F5F3D2000415658
:10E1500052204C696243205665723D20004743437C
:10E160002056657273696F6E203D20004350552024
:10E1700049442020202020203D20004C6F7720663D
:10E18000757365202020203D20004869676820665F
:10E190007573652020203D200045787420667573D6
:10E1A00065202020203D20004C6F636B2066757336
:10E1B000652020203D20004D617220203720323024
:10E1C000313300312E362E3800342E332E350056A2
:10E1D00023202020414444522020206F7020636F70
:10E1E00064652020202020696E73747275637469E1
:10E1F0006F6E2061646472202020496E74657272B3
:10E20000757074006E6F20766563746F7200726A49
:10E210006D702020006A6D70200057686174207056
:10E220006F72743A00506F7274206E6F7420737541
:10E2300070706F72746564004D7573742062652030
:10E2400061206C6574746572002000577269747483
:10E25000696E672045450052656164696E672045B7
:10E26000450045452065727220636E743D00504F35
:10E27000525400303D5A65726F2061646472003FF1
:10E280003D43505520737461747300403D454550C3
:10E29000524F4D207465737400423D426C696E6B41
:10E2A000204C454400453D44756D70204545505215
:10E2B0004F4D00463D44756D7020464C415348001B
:10E2C000483D48656C70004C3D4C69737420492F83
:10E2D0004F20506F72747300513D51756974005234
:10E2E0003D44756D702052414D00563D73686F7707
:10E2F00020696E7465727275707420566563746FF0
:10E30000727300593D506F727420626C696E6B00BD
:10E310002A0011241FBECFEFD1E2DEBFCDBF01E046
:10E320000CBF12E0A0E0B2E0EEE1FDEF03E00BBFB6
:10E3300002C007900D92A030B107D9F712E0A0E01B
:10E34000B2E001C01D92AE30B107E1F70F9460F367
:10E350000D948DFE01E20EBF0FEF0DBF11241FBE05
:10E360000D9460F30D9400F020E030E040ED57E0B4
:10E3700005C0FA013197F1F72F5F3F4F2817390792
:10E38000C0F308959C01260F311DC901A0E0B0E043
:10E390002F5F3F4FABBFFC018791882361F08093D3
:10E3A000C6008091C00086FFFCCF8091C0008064D1
:10E3B0008093C000EACF08958DE08093C6008091DD
:10E3C000C00086FFFCCF8091C00080648093C000B5
:10E3D0008AE08093C6008091C00086FFFCCF8091C8
:10E3E000C00080648093C00008950F94C2F10F9420
:10E3F000DCF10895FC019081992359F09093C600B7
:10E400008091C00086FFFCCF8091C0008064809323
:10E41000C0003196992379F70895282F982F929567
:10E420009F70892F805D8A3308F0895F8093C600D2
:10E430008091C00086FFFCCF8091C00080648093F3
:10E44000C000822F8F70982F905D9A3308F0995FEB
:10E450009093C6008091C00086FFFCCF8091C000E1
:10E4600080648093C00008959C01FB01853691056E
:10E470001CF46330710594F0C90164E670E00F94F8
:10E480002EFE605D7F4F6093C6008091C00086FFC6
:10E49000FCCF8091C00080648093C0002B30310598
:10E4A00014F43297B4F0C90164E670E00F942EFEC4
:10E4B0006AE070E00F942EFE605D7F4F6093C600AF
:10E4C0008091C00086FFFCCF8091C0008064809363
:10E4D000C000C9016AE070E00F942EFEC0968093E0
:10E4E000C6008091C00086FFFCCF8091C000806490
:10E4F0008093C00008951F93182F8EE692EE60E07F
:10E500000F94C2F11093C6008091C00086FFFCCF2B
:10E510008091C00080648093C0000F94DCF11F9153
:10E5200008952F923F924F925F926F927F928F92B7
:10E530009F92AF92BF92CF92DF92EF92FF920F9392
:10E540001F93DF93CF93CDB7DEB762970FB6F894E2
:10E55000DEBF0FBECDBF382E622ECA01DB015C01CB
:10E560006D01772420E2222E2E010894411C511CBB
:10E570008BC081E0A81680E0B80681E0C80680E084
:10E58000D80628F0C601AA27BB270F940DF2BB2797
:10E59000AD2D9C2D8B2D0F940DF28A2D0F940DF225
:10E5A0002092C6008091C00086FFFCCF8091C00001
:10E5B00080648093C0009DE29093C6008091C0006B
:10E5C00086FFFCCF8091C00080648093C0002092C1
:10E5D000C6008091C00086FFFCCF8091C00080649F
:10E5E0008093C00019828601750188249924A1E0D6
:10E5F0003A1651F03A1620F0B2E03B1661F409C029
:10E600000BBFF701779007C0C7010F9477FE782EF4
:10E6100002C0F7017080872D0F940DF22092C60082
:10E620008091C00086FFFCCF8091C0008064809301
:10E63000C000872D8052F401EF70F0708F3520F408
:10E64000E40DF51D708204C0E40DF51D8EE280839B
:10E650000894E11CF11C011D111D0894811C911CE2
:10E6600090E18916910409F0C2CF80E190E0A0E02A
:10E67000B0E0A80EB91ECA1EDB1E198AC2010F9493
:10E68000FAF10F94DCF16A94662009F072CF629679
:10E690000FB6F894DEBF0FBECDBFCF91DF911F91B3
:10E6A0000F91FF90EF90DF90CF90BF90AF909F9031
:10E6B0008F907F906F905F904F903F902F90089534
:10E6C0002F923F924F925F926F927F928F929F9282
:10E6D000AF92BF92CF92DF92EF92FF920F931F9370
:10E6E000DF93CF93CDB7DEB7CD53D1400FB6F894BB
:10E6F000DEBF0FBECDBF01E20EBF0FEF0DBF94B75F
:10E70000F894A89514BE80916000886180936000A1
:10E7100010926000789493FF05C0E0910002F091A0
:10E7200001021995279A2F9A8091C00082608093E8
:10E73000C00080E18093C40088E18093C1000000A4
:10E74000EE24FF24870144E0A42EB12CCC24DD2448
:10E7500024C0C5010197F1F70894E11CF11C011DCB
:10E76000111D21E2E2162EE4F20620E0020720E06D
:10E77000120718F031E0C32ED12CC801B70127ECE5
:10E780003BE140E050E00F9441FE611571058105C9
:10E79000910519F485B1805885B98091C00087FD35
:10E7A00003C0C114D104A9F2A6014F5F5F4FC25E3E
:10E7B000DE4F59834883CE51D140C25EDE4F8881FF
:10E7C0009981CE51D140019711F00D9410FEC05D9A
:10E7D000DE4F19821882C053D14060E0C15DDE4F28
:10E7E0001882CF52D14088249924C35DDE4F19820C
:10E7F0001882CD52D140C05EDE4F188219821A8233
:10E800001B82C052D140CE5CDE4F188219821A8220
:10E810001B82C253D140EE24FF2487010BBFF701B6
:10E8200007911691C45CDE4F19830883CC53D14005
:10E830000D940BFEC25EDE4F28813981CE51D1404E
:10E840002130310509F52091C600C25EDE4F1982E4
:10E850001882CE51D14022C02F5F3F4F4F4F5F4FA4
:10E86000213082E138078AE7480780E0580780F0C6
:10E87000C45CDE4FE881F981CC53D140EF5FFF4F9C
:10E8800019F0EE27FF27099420E030E040E050E047
:10E890008091C00087FFE0CF2091C600C35DDE4FAE
:10E8A00048815981CD52D1404F5F5F4FC35DDE4FEC
:10E8B00059834883CD52D140213209F063C64A3092
:10E8C000510508F05FC60894811C911C53E0851621
:10E8D000910409F059C600E010E018C081E280936D
:10E8E000C6008091C00086FFFCCF8091C00080648C
:10E8F0008093C0002F5F3F4F2931310579F70F9486
:10E90000DCF10F5F1F4F0530110519F020E030E0FA
:10E91000E5CF10920A0210920B0210920C02109294
:10E920000D02109206021092070210920802109235
:10E930000902109202021092030210920402109235
:10E9400005028FEE90EE60E00F94F5F180E191EE1C
:10E9500060E00F94C2F18091C00087FFFCCF9091DE
:10E96000C600903608F09F759032B8F09093C600BC
:10E970008091C00086FFFCCF8091C00080648093AE
:10E98000C000A0E2A093C6008091C00086FFFCCF2B
:10E990008091C00080648093C000983409F4D7C18E
:10E9A0009934B8F4923409F459C1933458F490333B
:10E9B00019F1903308F4E3C59F33A1F1903409F0C5
:10E9C000DEC5BDC0953409F470C1963409F0D7C5D1
:10E9D00098C1923509F42BC2933538F49C3409F46C
:10E9E000F5C1913509F0CBC518C2963509F445C279
:10E9F000993509F0C4C567C483E792EE62E00F94CD
:10EA0000F5F110920602109207021092080210927D
:10EA1000090210920A0210920B0210920C0210923C
:10EA20000D0213C18FE792EE62E00F94F5F18FEEC5
:10EA300090EE60E00F94F5F181E291EE60E00F94CA
:10EA4000C2F187EB91EE60E00F94F5F180E391EE77
:10EA500060E00F94C2F184EE90EE60E00F94F5F167
:10EA60008FE391EE60E00F94C2F186E090E061E008
:10EA700070E00F9434F20F94DCF18DE591EE60E0DC
:10EA80000F94C2F189EC91EE60E00F94F5F18EE401
:10EA900091EE60E00F94C2F183EC91EE60E00F9490
:10EAA000F5F18CE691EE60E00F94C2F18EE10F94E7
:10EAB0000DF288E90F940DF281E00F940DF20F949E
:10EAC000DCF18BE791EE60E00F94C2F119E0E0E039
:10EAD000F0E010935700E4918E2F0F940DF20F94F5
:10EAE000DCF18AE891EE60E00F94C2F1E3E0F0E03F
:10EAF00010935700E4918E2F0F940DF20F94DCF1D8
:10EB000089E991EE60E00F94C2F1E2E0F0E0109349
:10EB10005700E4918E2F0F940DF20F94DCF188EAE8
:10EB200091EE60E00F94C2F1E1E0F0E01093570045
:10EB30001491812F0F940DF20F94DCF107CF8BE825
:10EB400092EE62E00F94F5F18BE492EE60E00F94A8
:10EB5000F5F10F94DCF100E010E019C0C8016F2D51
:10EB60000F947FFEFF2031F489E492EE60E00F9471
:10EB7000C2F10BC0F092C6008091C00086FFFCCFAE
:10EB80008091C00080648093C0000F5F1F4FC80158
:10EB900081519F41A0E0B0E0ABBFFC01F790BAE229
:10EBA000FB1621F0E2E000301E07C1F60F94DCF105
:10EBB0000F94DCF187E592EE60E00F94F5F10F948D
:10EBC000DCF1CC24DD2400E010E01EC0C8010F946D
:10EBD00077FEF82E882331F489E492EE60E00F94FA
:10EBE000C2F10BC08093C6008091C00086FFFCCFAD
:10EBF0008091C00080648093C000FE1419F00894D6
:10EC0000C11CD11C0F5F1F4FC80181519F41A0E063
:10EC1000B0E0ABBFFC01E790FAE2EF1621F022E092
:10EC20000030120799F60F94DCF10F94DCF182E6C4
:10EC300092EE60E00F94C2F1C60161E070E00F94C3
:10EC400034F20F94DCF10F94DCF110920202109276
:10EC50000302109204021092050278CE89E992EE26
:10EC600062E00F94F5F1279A2F9A16C02F9880E052
:10EC700090E0E0EDF7E03197F1F7019684369105E9
:10EC8000C1F72F9A80E090E0E0EDF7E03197F1F7DF
:10EC9000019684369105C1F78091C00087FFE6CFC9
:10ECA0008091C00087FFFCCF64C485EA92EE62E0E9
:10ECB0000F94F5F140910202509103026091040219
:10ECC0007091050281E020E10F9491F2809102029F
:10ECD00090910302A0910402B091050280509F4FD1
:10ECE000AF4FBF4F8093020290930302A0930402A0
:10ECF000B093050280509041A040B04008F426CE69
:10ED0000A4CF83EB92EE62E00F94F5F140910602FE
:10ED100050910702609108027091090280E020E1A1
:10ED20000F9491F28091060290910702A09108023F
:10ED3000B091090280509F4FAF4FBF4F80930602A2
:10ED400090930702A0930802B0930902FFCD80ECD4
:10ED500092EE62E00F94F5F183E792EE60E00F949B
:10ED6000F5F18FE792EE60E00F94F5F18BE892EE0B
:10ED700060E00F94F5F189E992EE60E00F94F5F10F
:10ED800085EA92EE60E00F94F5F183EB92EE60E09D
:10ED90000F94F5F180EC92EE60E00F94F5F187ECC2
:10EDA00092EE60E00F94F5F188ED92EE60E00F9442
:10EDB000F5F18FED92EE60E00F94F5F18AEE92EEB0
:10EDC00060E00F94F5F183E093EEBDCD87EC92EE19
:10EDD00062E00F94F5F181E40F947BF282E40F94EA
:10EDE0007BF283E40F947BF284E40F947BF285E45E
:10EDF0000F947BF286E40F947BF287E40F947BF20E
:10EE000088E40F947BF28AE40F947BF28BE40F94F6
:10EE10007BF28CE40F947BF299CD88ED92EE62E068
:10EE20000F94F5F1772473948824992409C48FED05
:10EE300092EE62E00F94F5F140910A0250910B02BC
:10EE400060910C0270910D0282E020E10F9491F22A
:10EE500080910A0290910B02A0910C02B0910D02D8
:10EE600080509F4FAF4FBF4F80930A0290930B0289
:10EE7000A0930C02B0930D0269CD8AEE92EE62E08F
:10EE80000F94F5F184EE90EE60E00F94F5F18FECC5
:10EE900091EE60E00F94F5F1662477244301CC5D98
:10EEA000DE4F19821882C452D140D401C301B695F5
:10EEB000A79597958795CA5DDE4F88839983AA8326
:10EEC000BB83C652D140CC5DDE4FA881B981C4520C
:10EED000D1401196CC5DDE4FB983A883C452D14096
:10EEE000CD0162E070E00F9434F2B0E2B093C6005E
:10EEF0008091C00086FFFCCF8091C0008064809329
:10EF0000C000EDE2E093C6008091C00086FFFCCF18
:10EF10008091C00080648093C000F0E2F093C6004E
:10EF20008091C00086FFFCCF8091C00080648093F8
:10EF3000C000CA5DDE4FE880F9800A811B81C6529D
:10EF4000D140BB27A12F902F8F2D0F940DF2CA5DBA
:10EF5000DE4F8881C652D1400F940DF2B0E2FB2EF5
:10EF6000F092C6008091C00086FFFCCF8091C00067
:10EF700080648093C0000DE30093C6008091C000C0
:10EF800086FFFCCF8091C00080648093C00010E2B7
:10EF90001093C6008091C00086FFFCCF8091C00016
:10EFA00080648093C0008BBEF3012791C65DDE4F65
:10EFB0002883CA52D140A22EBB24CC24DD2408943D
:10EFC000611C711C811C911C8BBEF3018791282E42
:10EFD0003324442455240894611C711C811C911C09
:10EFE0008BBEF3013791C55DDE4F3883CB52D140E4
:10EFF0000894611C711C811C911C8BBEF30147910C
:10F00000C45DDE4F4883CC52D140ADEFEA2EAFEF66
:10F01000FA2EAFEF0A2FAFEF1A2F6E0C7F1C801E57
:10F02000911E142D032DF22CEE24EA0CFB1C0C1D5A
:10F030001D1D0F940DF220E22093C6008091C000A8
:10F0400086FFFCCF8091C00080648093C000C65DC5
:10F05000DE4F8881CA52D1400F940DF230E23093D6
:10F06000C6008091C00086FFFCCF8091C000806404
:10F070008093C000C45DDE4F8881CC52D1400F9494
:10F080000DF240E24093C6008091C00086FFFCCFA5
:10F090008091C00080648093C000C55DDE4F888190
:10F0A000CB52D1400F940DF250E25093C6008091A4
:10F0B000C00086FFFCCF8091C00080648093C000B8
:10F0C0008FEFE8168FEFF80680E0080780E018075A
:10F0D00031F484E092EE60E00F94C2F1DFC0D80119
:10F0E000C7018070907CA070B0708050904CA040A0
:10F0F000B040D1F52FEF3FE340E050E0E222F322B1
:10F1000004231523CA5DDE4FA880B980CA80DB8046
:10F11000C652D140AE0CBF1CC01ED11EAA0CBB1CD7
:10F12000CC1CDD1C8EE092EE60E00F94C2F1BB2798
:10F13000A12F902F8F2D0F940DF28E2D0F940DF285
:10F1400030E23093C6008091C00086FFFCCF8091F2
:10F15000C00080648093C0004EE34093C60080915D
:10F16000C00086FFFCCF87C08EE09EEFA0E0B0E03D
:10F17000E822F9220A231B239CE0E91694E9F90608
:10F1800090E0090790E0190709F088C0C45DDE4FE0
:10F19000A881CC52D140EA2EFF2400E010E0102FCD
:10F1A0000F2DFE2CEE24C55DDE4FB881CB52D14031
:10F1B000EB0EF11C011D111DD601C501817090706F
:10F1C000A070B070DC0199278827E80EF91E0A1F8D
:10F1D0001B1F20EF30E040E050E0A222B322C42207
:10F1E000D52241E1AA0CBB1CCC1CDD1C4A95D1F7F1
:10F1F000EA0CFB1C0C1D1D1D81E090E0A0E0B0E0BE
:10F20000282239224A225B2235E1220C331C441C7D
:10F21000551C3A95D1F7E20CF31C041D151D57013E
:10F220006801AA0CBB1CCC1CDD1C85E192EE60E0E1
:10F230000F94C2F1C801AA27BB270F940DF2BB2778
:10F24000A12F902F8F2D0F940DF28E2D0F940DF274
:10F2500090E29093C6008091C00086FFFCCF809121
:10F26000C00080648093C000AEE3A093C60080918C
:10F27000C00086FFFCCF8091C00080648093C000F6
:10F28000C601AA27BB270F940DF2BB27AD2D9C2DDD
:10F290008B2D0F940DF28A2D0F940DF20F94DCF14B
:10F2A000CC5DDE4FE881F981C452D140F99709F471
:10F2B0004DCBF4E0EF2EF12C012D112D6E0C7F1CA7
:10F2C000801E911EF2CD83E093EE62E00F94F5F183
:10F2D0008AE192EE60E00F94C2F18091C00087FF56
:10F2E000FCCF1091C6001F751093C6008091C0001E
:10F2F00086FFFCCF8091C00080648093C0000F9493
:10F30000DCF1812F81548A3108F036C1163409F4BA
:10F3100095C0173490F4133409F44EC0143430F40B
:10F320001134F1F0123409F01DC130C0143409F465
:10F3300059C0153409F016C16BC01A3409F4C4C0A1
:10F340001B3438F4173409F48FC0183409F00AC19B
:10F35000A1C01B3409F4D2C01C3409F003C1E8C0B9
:10F360008FEF81B90DC082B1809582B980E090E0C5
:10F37000E0EDF7E03197F1F70196883C9105C1F790
:10F380008091C00087FFEFCF12B8EFC08FEF84B934
:10F390000DC085B1809585B980E090E0E0EDF7E0A3
:10F3A0003197F1F70196883C9105C1F78091C00033
:10F3B00087FFEFCF15B8D9C08FEF87B90DC088B1DF
:10F3C000809588B980E090E0E0EDF7E03197F1F7C3
:10F3D0000196883C9105C1F78091C00087FFEFCF6F
:10F3E00018B8C3C08FEF8AB90DC08BB180958BB9A7
:10F3F00080E090E0E0EDF7E03197F1F70196883C8E
:10F400009105C1F78091C00087FFEFCF1BB8ADC059
:10F410008FEF8DB90DC08EB180958EB980E090E0F0
:10F42000E0EDF7E03197F1F70196883C9105C1F7DF
:10F430008091C00087FFEFCF1EB897C08FEF80BBD1
:10F440000DC081B3809581BB80E090E0E0EDF7E0F6
:10F450003197F1F70196883C9105C1F78091C00082
:10F4600087FFEFCF11BA81C08FEF83BB0DC084B38C
:10F47000809584BB80E090E0E0EDF7E03197F1F714
:10F480000196883C9105C1F78091C00087FFEFCFBE
:10F4900014BA6BC08FEF809301010FC080910201FD
:10F4A00080958093020180E090E0E0EDF7E03197F5
:10F4B000F1F70196883C9105C1F78091C00087FF64
:10F4C000EDCF1092020151C08FEF809304010FC065
:10F4D0008091050180958093050180E090E0E0ED4A
:10F4E000F7E03197F1F70196883C9105C1F78091DB
:10F4F000C00087FFEDCF1092050137C08FEF8093DA
:10F5000007010FC08091080180958093080180E079
:10F5100090E0E0EDF7E03197F1F70196883C910536
:10F52000C1F78091C00087FFEDCF109208011DC088
:10F530008FEF80930A010FC080910B01809580931B
:10F540000B0180E090E0E0EDF7E03197F1F70196F4
:10F55000883C9105C1F78091C00087FFEDCF1092E4
:10F560000B0103C085E292EEEEC98091C00087FFD7
:10F57000FCCF8091C600EAC988E392EEE4C98CE131
:10F5800091EEE1C988249924933011F1943028F444
:10F59000913089F09230B8F408C0953061F195301F
:10F5A000F0F0963009F048C043C02B3109F042C951
:10F5B00091E06BE13FC96227C15DDE4F2883CF52E6
:10F5C000D14092E037C9B22FA0E0622793E032C960
:10F5D000822F90E0A82BB92B622794E02BC92E3004
:10F5E00009F039C3622795E0C05DDE4F19821882A9
:10F5F000C053D1401FC9E1E0F0E0EC0FFD1FC05D3A
:10F60000DE4F08811981C053D140E00FF11F2083E4
:10F610000F5F1F4FC05DDE4F19830883C053D14079
:10F6200062270A171B0709F005C9D80196E002C92D
:10F63000261709F010C303C0973009F0FBC87724E0
:10F640009981933109F412C19431C8F4963009F4C8
:10F65000D8C0973050F4923009F406C1933009F4C1
:10F660006DC0913009F059C253C0913109F477C08F
:10F67000923108F0BBC0903109F04FC2F5C098310B
:10F6800009F487C0993150F4953109F4EFC09531F0
:10F6900008F4C6C1963109F040C2C2C19A3109F4DA
:10F6A0006CC09A3108F491C09B3109F45BC09D3164
:10F6B00009F033C29D81903359F48F81882311F46E
:10F6C0009EE11CC0813011F091E018C098E916C08D
:10F6D000892F807591F0903539F4E0E0F0E089E011
:10F6E0008093570094910AC0983539F4E3E0F0E034
:10F6F00089E080935700949101C090E01A821B82A8
:10F700008D818C831D829E831F8227E030E009C299
:10F710001A8288E08B8381E48C8386E58D8382E581
:10F720008E8389E48F8383E5888780E589878FE5E9
:10F730008A8782E38B872BE030E0F3C18A818139AD
:10F7400041F0823941F0803911F48FE005C080E04A
:10F7500003C082E001C08AE01A828B8344C0772410
:10F76000739482C08D81882311F48EE12CC0813086
:10F7700011F081E028C088E926C01A82E1E0F0E0BB
:10F7800089E08093570084918B831C8224E030E0D1
:10F79000C8C18B81803589F48C81883039F4E2E0EE
:10F7A000F0E089E08093570084910DC0E0E0F0E044
:10F7B00089E080935700849106C0E3E0F0E089E09F
:10F7C0008093570084911A82DFCF8D81836C99E0FA
:10F7D000E1E0F0E0082E90935700E89507B600FCB2
:10F7E000FDCF1A821B8223E030E09BC180EC8A832C
:10F7F000CE5CDE4F188219821A821B82C253D1401E
:10F800008EC18A8190E0A0E0B0E0582F44273327D2
:10F8100022278B8190E0A0E0B0E0DC0199278827C7
:10F82000282B392B4A2B5B2B8D8190E0A0E0B0E098
:10F83000282B392B4A2B5B2B8C8190E0A0E0B0E089
:10F84000BA2FA92F982F8827282B392B4A2B5B2BCF
:10F85000220F331F441F551FC05EDE4F288339839C
:10F860004A835B83C052D1401A8259C13A81C95C34
:10F87000DE4F3883C753D140CA5CDE4F1882C6536F
:10F88000D1408B81C82EDD24CA5CDE4F488159816E
:10F89000C653D140C42AD52A933109F082C0CE5C28
:10F8A000DE4F88819981AA81BB81C253D1408050AB
:10F8B000904CA340B04030F583E0CE5CDE4FE88052
:10F8C000F9800A811B81C253D140F70100935B008C
:10F8D00080935700E89507B600FCFDCFCE5CDE4F65
:10F8E000088119812A813B81C253D14000501F4FAA
:10F8F0002F4F3F4FCE5CDE4F088319832A833B8313
:10F90000C253D140C05EDE4F488159816A817B81FC
:10F91000C052D140DE011B9631E08C9111962C91A2
:10F9200011971296C75CDE4F2883C953D140C85C3B
:10F93000DE4F1882C853D14090E0C85CDE4FE881AA
:10F94000F981C853D1408E2B9F2B0C01FA01609393
:10F950005B0030935700E89511244E5F5F4F6F4F67
:10F960007F4F0EEFE02E0FEFF02ECE0CDF1CC114F8
:10F97000D10499F685E0C05EDE4F088119812A81A5
:10F980003B81C052D140F80120935B008093570027
:10F99000E89507B600FCFDCF81E180935700E8951C
:10F9A00035C0C05EDE4F88819981AA81BB81C0527B
:10F9B000D140B695A795979587957C018601ABE0D8
:10F9C000AA2EB12CAC0EBD1E0BC0D5016D915D01F0
:10F9D000C7010F947FFE0894E11CF11C01501040F8
:10F9E0000115110591F7A60160E070E0440F551F65
:10F9F000661F771FC05EDE4FE880F9800A811B8199
:10FA0000C052D1404E0D5F1D601F711F1A82C05E33
:10FA1000DE4F488359836A837B83C052D1407FC0C5
:10FA2000FA80C55CDE4FF882CB53D140C65CDE4F16
:10FA30001882CA53D1408B81C82EDD24C65CDE4FAC
:10FA400008811981CA53D140C02AD12A1A828981DA
:10FA5000BE016D5F7F4F843121F59601C05EDE4FA0
:10FA6000E880F9800A811B81C052D1400BBFF701A9
:10FA700087919691DB018C9311969C936E5F7F4FDB
:10FA8000D801C7010296A11DB11DC05EDE4F88835B
:10FA90009983AA83BB83C052D14022503040F1F6F3
:10FAA00036C0C05EDE4F288139814A815B81C052F9
:10FAB000D1400894C108D108760100E010E0089414
:10FAC000C11CD11C0894E11CF11C011D111DE20E8A
:10FAD000F31E041F151F21BDBB27A52F942F832FB5
:10FAE00082BD2F5F3F4F4F4F5F4FF89A80B5DB01CC
:10FAF0008D93BD012E153F054007510761F7C05E8C
:10FB0000DE4F288339834A835B83C052D1409601FC
:10FB10002D5F3F4FFB01108204C080EC8A8322E0FE
:10FB200030E08BE18093C6008091C00086FFFCCF5F
:10FB30008091C00080648093C000C15DDE4FF88179
:10FB4000CF52D140F093C6008091C00086FFFCCF19
:10FB50008091C00080648093C000432F3093C60022
:10FB60008091C00086FFFCCF8091C00080648093AC
:10FB7000C000922F2093C6008091C00086FFFCCF6A
:10FB80008091C00080648093C0008EE08093C600A6
:10FB90008091C00086FFFCCF8091C000806480937C
:10FBA000C00065E1C15DDE4FE880CF52D1406E25D7
:10FBB00069276427FE01319610C090819093C6009A
:10FBC0008091C00086FFFCCF31968091C000806498
:10FBD0008093C0006927215030402115310569F715
:10FBE0006093C6008091C00086FFFCCF8091C0006A
:10FBF00080648093C00085B1805885B9772081F4F6
:10FC0000C15DDE4F0881CF52D1400F5FC15DDE4F35
:10FC10000883CF52D14090E0A0E0B0E00D941AF4F8
:10FC200027982F9880E090E020ED37E0F901319798
:10FC3000F1F7019684369105C9F700008091C00064
:10FC40008D7F8093C00081E180935700E895EE2777
:10FC5000FF270994FFCF90E00D941AF497FB092E2B
:10FC600007260AD077FD04D02ED006D000201AF443
:10FC7000709561957F4F0895F6F7909581959F4F08
:10FC80000895A1E21A2EAA1BBB1BFD010DC0AA1FDD
:10FC9000BB1FEE1FFF1FA217B307E407F50720F0F5
:10FCA000A21BB30BE40BF50B661F771F881F991F70
:10FCB0001A9469F760957095809590959B01AC01B9
:10FCC000BD01CF010895AA1BBB1B51E107C0AA1FAC
:10FCD000BB1FA617B70710F0A61BB70B881F991FED
:10FCE0005A95A9F780959095BC01CD010895F99991
:10FCF000FECF92BD81BDF89A992780B50895262F31
:10FD0000F999FECF1FBA92BD81BD20BD0FB6F89400
:0EFD1000FA9AF99A0FBE01960895F894FFCF63
:00000001FF
